:020000040800F2
:10000000C0080020ED1100081108000813080008BE
:10001000150800081708000819080008000000006B
:100020000000000000000000000000001B080008A5
:100030001D080008000000001F0800082108000833
:10004000071200080712000807120008071200082C
:10005000071200080712000807120008071200081C
:10006000071200080712000807120008071200080C
:1000700007120008071200080712000807120008FC
:1000800007120008071200080712000807120008EC
:100090002B080008071200080712000807120008C2
:1000A00007120008071200080712000807120008CC
:1000B000C30700080712000807120008071200080B
:1000C00007120008071200080712000807120008AC
:1000D000071200080712000807120008071200089C
:1000E00007120008071200082F08000800F002F8A5
:1000F00000F05AF80AA090E8000C82448344AAF168
:100100000107DA4501D100F04FF8AFF2090EBAE865
:100110000F0013F0010F18BFFB1A43F0010318473B
:10012000F0220000102300000A444FF0000C10F8E9
:10013000013B13F0070408BF10F8014B1D1108BF65
:1001400010F8015B641E05D010F8016B641E01F805
:10015000016BF9D113F0080F1EBF10F8014BAD1C55
:100160000C1B09D16D1E58BF01F801CBFAD505E073
:1001700014F8016B01F8016B6D1EF9D59142D6D3CD
:10018000704700000023002400250026103A28BFF5
:1001900078C1FBD8520728BF30C148BF0B607047F9
:1001A0001FB51FBD10B510BD02F09FF81146FFF737
:1001B000F7FF00F0B8F902F0BDF803B4FFF7F2FF63
:1001C00003BC02F0C5F800003EB562484FF47A71F6
:1001D0000068B0FBF1F0B0F1807F0DD220F07F41DC
:1001E0004FF0E020491E41615B4AF02182F8141D66
:1001F00000218161072101610121042001F0E8FF54
:100200000220ADF8080003208DF80A001020534C9E
:100210008DF80B0002A9204601F0B0FE0221204615
:1002200001F0FDFE4FF48024204601F03FFE08203F
:100230008DF8050001208DF806000094684601F055
:10024000FFFD3EBD10B5002001F07EFF0121BDE89D
:100250001040C80501F0C5BF4148817A414809B145
:10026000052100E001210160704738B54FF4A0601E
:1002700001F0AEFD14208DF8000002208DF8010081
:1002800000208DF8020001248DF80340684601F03B
:10029000A4FD2A208DF800008DF80140684601F089
:1002A0009CFD38BD7047F0B500230A243025372661
:1002B0001F4610E0B4EB107F02D905EB107C01E083
:1002C00006EB107C01F813C001EB430C00015B1C32
:1002D0008CF80170DBB29342ECD3F0BD224810B52C
:1002E0000168001D0468001D006808180AD0082273
:1002F0001E49FFF7D8FF1D4920460422BDE81040E3
:100300001031D0E710BD10B50C4640290FD8184A5F
:10031000002111602246C02101F02EFC214601205F
:1003200001F009FD012001F088FC012010BD002032
:1003300010BD104910B500200860032001F08DFCAD
:10034000012010BD0C4A116813685B1A8342FBD36D
:1003500070470000200100200FE000E0000801408D
:100360004402002014010020E8F7FF1F1E000020B7
:1003700008000020140000201800002010B50346DB
:1003800004E000BF11F8014B03F8014B521E92B27A
:10039000F8D210BD1FB504461C208DF80C000121B9
:1003A0008DF80D108DF80E108DF80F1003A801F0C8
:1003B00014FD0121084601F014FF4720641EADF82A
:1003C0000000ADF804400020ADF80600ADF80200D2
:1003D0004FF080446946204601F016FF0122114685
:1003E000204601F054FF0121204601F046FF1FBDC9
:1003F00070B5FD4BFD4CA3F11E0000250178E2789D
:10040000914200D8E570E17800EB4100491CE170B1
:100410002179C27D03EB4101807D891C00F0BBFD89
:1004200001004FF0804021D02169491C21612179D0
:10043000491CC9B22171627991420DD32571E570D1
:100440006178012549B1E168491CE1600A2903D9B5
:10045000002101F012FF257070BDE3493E22891C86
:1004600001F14000FFF78AFF657070BD002101F0C7
:1004700004FF0220207070BD2DE9F041DB4E002505
:100480007570D94CF5701E3C3571A08841F225314C
:100490006438884202D342F21070A080A0884FF4E2
:1004A0007A71484300F0D6FC2078042800D92570E2
:1004B000A088CF49B1FBF0F7207810B16088B8422E
:1004C0000CD22570757100214FF0804001F0D5FEEF
:1004D0006088B8420AD20020BDE8F081FFF75AFFD9
:1004E00021781E20B0FBF1F0484370717079022131
:1004F00001EB4000B071F56035616078042801D9E6
:1005000065700EE0002509E004EB8500C2790189E1
:10051000807900F0D4FC0028DED06D1C6078A84201
:10052000F2DC0120D8E7FFF74FFEFFF78BFEFFF765
:100530009CFE01F05FFAAC4955224FF0070A0A70A1
:1005400001F1400981F801A089F8002089F801A093
:100550004B20FFF7F7FE1E21A9F15E0000F061FCC1
:10056000002738B9A9F15E004FF4C87107704770D1
:1005700081804180FFF780FFDFF878829E4E9B4D9F
:100580004FF00A0BD8F800000528FBD1FFF7D1FE89
:1005900030680228A86873D3012872D1974C20785C
:1005A000552802D0AA2864D0A6E06078032836D067
:1005B00005DC58B101280ED0022855D129E01028B9
:1005C00033D0112838D012284ED140E01520608059
:1005D0000620A08062E03068022812D9AF7030682F
:1005E000202801D91E2001E03068801E82B27E489A
:1005F000A11C1E38FFF7C2FEFFF73EFF80B30120AB
:10060000A87079491E221E39A01CFFF7B7FE2020D2
:1006100044E075481E211E3800F0D8FB27E0286909
:1006200044F8020FE868606037E0AF70E278A078C5
:10063000211D00F0B0FC05E0AF70E278A188A07841
:1006400000F03DFC60B10120A870062026E0AF70EC
:10065000A01C00F063FD18B10120A87003201DE06C
:10066000FFE70120A870607840F0800060700220F1
:1006700014E061787F2905D03068062810D03BE06F
:100680007CE03EE0022060805D480068A0805D481C
:100690000068E0805C4880682081584630602BE02C
:1006A000D4F8020024294DD010DC20293AD006DCF1
:1006B000102928D011292BD0122917D12EE0212959
:1006C00033D0222938D0232910D138E0322945D01F
:1006D00006DC252938D030293AD0312906D13AE034
:1006E00033293ED034293FD0352941D041F0800113
:1006F00084F80110C4F802003068C1B23F48FFF727
:1007000002FE37603EE73E4908310860081F03E0FB
:100710003C4908310860081F0068EBE73A49086166
:10072000C868E7E73649083901E03549091F0A6812
:1007300002400A600868DDE732490839F7E73149C5
:10074000091FF4E73049F2E72F494A68024012E0F6
:100750002B49083909E02A49091F06E029490839C7
:1007600003E02849091F00E027490A680243E0E73F
:1007700025494A6802434A604868BBE70128C1D15D
:10078000687830B11848A9794030FFF7BCFD6F7028
:10079000F8E628780028B5D0872189F80110296962
:1007A000C9F80210E968C9F8061089F80A000E486D
:1007B0004C460B214030FFF7A6FD84F801A02F70B6
:1007C000E0E610B501218C07204601F068FD002805
:1007D0001CD00121204601F06EFD044880780028DD
:1007E00014D0BDE8104003E6C20100200000002044
:1007F000281D0100140100203800002064010020A1
:1008000008080140080C01400010014010BD000024
:100810007047FEE7FEE7FEE7FEE770477047704768
:1008200005480168491C0160704700F025B84FF485
:10083000802001F03BBB0000180000200A49012085
:1008400008607047094910B501200860032001F0D5
:1008500098FA074902460860BDE810404FF48871D5
:10086000044801F09CB9000008000020140000209A
:1008700038000020640100202DE9F041424E88B08C
:1008800000243068414D68806988414F38880140B4
:10089000890505D54FF6FF5131602978491C29702B
:1008A00069880140080401D501F0B8F868883988E2
:1008B0004FF6FF380840400504D5C6F8008035489B
:1008C00040688047698838880140890402D54DF620
:1008D000FF71316069880140C80405D54EF6FF708C
:1008E0003060002000F077F9688839880840C0053A
:1008F00046D54FF6FF6030602348001D00684FF07A
:100900000002000438D56868401C686068680328E5
:1009100033D91D48001F016809072ED4016889B228
:10092000A9601D494FEA0D0301EB8407D7F8007C4D
:10093000BFB243F82470641C082CF5D3AC6844F0B3
:100940000104AC60AC68A4B20460AC6824F001049B
:10095000AC60AC68A4B2046030684005FCD5C6F851
:100960000080002053F8204001EB8006A4B2C6F8B6
:10097000004C401C0828F5D36A60072000F02BF9D2
:1009800008B0BDE8F0810000445C00403C0000205D
:10099000480100209C0000200050004010B5FFF7E7
:1009A0009DFC764800240068847200F0F1F801F0A4
:1009B000FFF97348046010BD704810B50068714AB3
:1009C00000218172D2794272C172084601F0F8F8B2
:1009D0004FF40071002001F0F8F81021002001F020
:1009E00000F94021002001F085F98021002001F06C
:1009F00076F9002001F041F9634890F82C100020AE
:100A000001F0A3F9002001F028F90021012001F0F4
:100A1000DCF8C021012001F062F92021012001F061
:100A2000E0F80021012001F0F2F84FF4C06102204B
:100A300001F0CBF84FF48071022001F050F9002151
:100A4000022001F0E4F82021022001F0CAF8002180
:100A5000032001F0BAF84FF48871032001F04AF93D
:100A60004021032001F071F94FF44051032001F0BF
:100A7000CEF80021032001F0B4F8002000F0FAFEC7
:100A80003F490120086010BD4048807A002802D00C
:100A90003B490520086070473949042008607047C9
:100AA00039481C380178202901D100210170704794
:100AB000704710B134481838704730490820096829
:100AC00008820020704710B12F48183870472B4912
:100AD00008200968088200207047284A10B50021C4
:100AE0001268212802D0202808D019E0107800F0E0
:100AF0007F00212814D1AFF231010AE0107800F014
:100B00007F00212801D1AFF255011F4B20201C3B53
:100B1000187029B10020916150828847002010BDD3
:100B2000022010BD15490968097801F07F012129CB
:100B300003D1022803D0222801D0022070470020D0
:100B400070471149103900F0BFBC0F49083900F057
:100B5000BBBC0A490968C978042901D9002070473B
:100B6000094A303202EBC10100F0AEBC09B90128DC
:100B700001D9022070470020704700003C0100208E
:100B800014010020702300089C0000204402002073
:100B900010B50120FFF786FB3248012101600021DA
:100BA000314A0160031D19604FF4E051118001606A
:100BB000002010BD10B502212C4801F032FA294C5A
:100BC000206880B220F004002060FFF745FB4FF45E
:100BD0003740206010BD2DE9F041254C072800D09A
:100BE00020702278224D0627052104261D48062A5A
:100BF0000BD2DFE802F0030C11161E27686810B153
:100C00002170BDE8F081FFF7D5FF2770F9E7FFF706
:100C1000D1FF2670012022E00220607003202070A6
:100C2000EFE76078401E607060780028E9D1267098
:100C3000E7E7026892B242F01002026021700A20D7
:100C40006070DEE76178491E617061780029D8D153
:100C5000016889B221F010010160277000206860EE
:100C6000CFE70000405C0040480100200008014040
:100C7000180100200CB5002136480191009102684E
:100C800042F4803202604FF4A063026802F4003242
:100C90000092019A521C0192009A12B9019A9A424A
:100CA000F3D10268920333D5012100912A490A68E1
:100CB00042F010020A600A6822F003020A600A6821
:100CC00042F002020A604168416041684160416847
:100CD00041F480614160416821F47C1141604168C8
:100CE00041F4E8114160016841F0807101600168E0
:100CF0008901FCD5416821F003014160416841F060
:100D0000020141604168C1F381010229FAD10CBDA1
:100D100000910CBD0F4810B5016841F00101016060
:100D200041680E4A1140416001680D4A114001605E
:100D3000016821F480210160416821F4FE014160D5
:100D40004FF41F018160FFF795FF06494FF00060E7
:100D5000086010BD00100240002002400000FFF8B3
:100D6000FFFFF6FE08ED00E0F0B5024602F00103D9
:100D70001A44121D364B002092B2344945F2AA564D
:100D80004AF655279C1A09E00B88B34208D18B1804
:100D900033F8025CBD4200D1084619468C42F3D8B4
:100DA000F0BD014601F00102114410B5091D284AA9
:100DB00089B226484FF6FF74521A03E00388A34213
:100DC00003D008448242F9D8002010BD2DE9F0413B
:100DD00004460F4600260846FFF7E3FF054601F0EC
:100DE0006BF81DB91948054601F08EF845F2AA5175
:100DF000284601F0A5F80AE014F8010B14F8011BCD
:100E000040EA0121284601F09BF8B61CB6B2AD1CA1
:100E1000BE42F1D32846BDE8F0414AF6552101F023
:100E20008FB830B504460D460846FFF79DFF0028F1
:100E30000AD0801C04E000BF10F8011B04F8011B5D
:100E40006D1EADB2F8D2012030BD000000FC0008DC
:100E50000100010810B50446012186B0880501F0A3
:100E6000C0F90121082001F0B3F94FF44060ADF85A
:100E7000100003208DF812001C208DF8130004A927
:100E8000D64801F07BF80A20ADF804004BF6FF705D
:100E9000ADF806000120ADF808008002ADF80A00A8
:100EA00000940001CE4CADF80C006946204601F0DC
:100EB000BBF80121204601F0EEF806B010BD2DE987
:100EC000F05F41F2883493460F468246002625465D
:100ED000DFF80C834FF4003900E06D1E49464046B0
:100EE00001F01AF910B1002DF7D14EE05DB30121E8
:100EF000404601F0DAF82546DFF8E89200E06D1E82
:100F00004946404601F0FCF848B1E5B1002251469F
:100F1000404601F0EDF82546DFF8CC9203E0002DC5
:100F2000EDD132E06D1E4946404601F0E9F840B18E
:100F30004DB15946404601F0D6F8AB4DA146AD1C27
:100F400003E0002DEED120E0641E2946404601F06A
:100F5000D7F830B1CCB1390A404601F0C4F84C465C
:100F600003E0002CF0D110E0641E2946404601F059
:100F7000C7F868B14CB1F9B24446404601F0B3F845
:100F80000121204601F09BF801263046BDE8F09F84
:100F9000002CE9D1F9E72DE9F74F41F288371446E3
:100FA0008B4600263D46DFF838824FF4003900E0DA
:100FB0006D1E4946404601F0AFF810B1002DF7D143
:100FC000A9E0002DFCD00121C146404601F06DF89A
:100FD000B8463D46834F00E06D1E3946484601F055
:100FE0008FF858B1002D0BD00022CA464846009910
:100FF00001F07EF8C1464546D04603E0002DEBD116
:1010000089E06D1E7849404601F07AF880B1002DE4
:1010100010D001214546404601F03DF821462846C2
:1010200001F061F8DFF8C0A14D460AF1020A03E0C1
:10103000002DE6D16FE06D1E5146404601F060F88C
:1010400058B1002D67D00121C246404601F02DF86D
:10105000C8464D46B946574603E0002DEBD15AE04D
:101060006D1E4946384601F04BF860B1FDB10122D2
:101070003D463846009901F03BF8DFF86891474655
:1010800009F1010903E0002DEAD144E07F1E494641
:10109000284601F035F840B14FB1C1464746DFF868
:1010A0004481AA4608F13F0803E0002FEED132E068
:1010B0007F1E45464146504601F022F898B157B38D
:1010C000D0465746404601F010F860F30F24002147
:1010D000384600F0FEFF0121384600F0F0FF4F4691
:1010E000A946454603E0002FE2D114E07F1E4946A1
:1010F000284601F005F808B9002FF7D1012128464C
:1011000000F0E7FF3FB1284600F0EFFF60F307046F
:10111000ABF8004001263046BDE8FE8F2DE9F047D0
:1011200041F288348046254600262D4F4FF4003981
:1011300000E06D1E4946384600F0EEFF10B1002D6C
:10114000F7D147E07DB30121384600F0AEFF2546D8
:10115000DFF8909000E06D1E4946384600F0D0FF61
:1011600060B105B3012218213D46384600F0C0FFAA
:10117000DFF87090274609F1010903E0002DEAD15C
:1011800028E07F1E4946284600F0BAFF60B157B1FB
:101190000021284600F09DFF0121284600F08FFF26
:1011A000104F3F3704E015E0002FEAD112E0641E33
:1011B0003946284600F0A4FF08B9002CF7D10121D8
:1011C000284600F086FF2CB1284600F08EFF88F8F4
:1011D000000001263046BDE8F0870000000C014009
:1011E00000580040010003008200070009488047C2
:1011F00009480047FEE7FEE7FEE7FEE7FEE7FEE7F9
:10120000FEE7FEE7FEE7FEE704480549054A064B10
:1012100070470000150D0008ED000008C002002016
:10122000C0080020C0040020C004002010B5FB4C02
:1012300030B1FB4800680068804720680A3010BD64
:10124000216801200882002010BDF44810B5006814
:10125000F44AC1785278914203D882780AB98288D8
:101260000AB1022010BD8172ED48006840688047D5
:10127000002010BD10B5E94C30B1E9480068806825
:10128000804720680C3010BD2168012008820020B2
:1012900010BD10B5E14CE44A20681268C17892692B
:1012A0004079904721688A7A22B118B9087908B93B
:1012B000887808B1022010BDD9480068C06880470E
:1012C00020684179C172C1780173002010BDD349F3
:1012D00010B5096860B1D548002202800A7853062B
:1012E0000AD002F07F02012A16D0022A16D001E0AD
:1012F00002200882002010BD497A8A06027802D5B1
:1013000042F0020201E002F0FD0249060270D1B291
:1013100011D401F0FE0110E0C44810BD4A79110754
:101320001306C34A02EB9161D1F8001C07D5C1F343
:10133000011106E0017841F00101017003E0C1F301
:1013400001310129F6D0B648006800698047E3E71B
:101350002DE9F041B1480068017811F07F0102D019
:10136000022905D066E0417A01F0DF0141724EE0CA
:10137000418800295ED10179F1BB4179AC4D21F062
:1013800080040A0605EB8402A64BD2F8002C03D594
:10139000C2F30112120102E0C2F3013212031E78FD
:1013A0002346A64246D93AB3807A28B308064FEAC4
:1013B00084000ED52844D0F8000CC0F30110012899
:1013C00021D1184600F079FC2046302100F009FCBC
:1013D00019E04619D6F8000CC0F30130012812D1EB
:1013E0004BF68F7748F28008A4B1184600F053FC02
:1013F000D6F8000C384000E01CE080F4405040EA91
:101400000800C6F8000C8648006840698047002044
:10141000BDE8F081874890F82C10002000F095FC82
:10142000D5F8000C384080F4405040EA0800C5F878
:10143000000CE8E70220EBE770B578487C4D0368C4
:10144000597921F0800005EB80000C06D0F8004CA3
:1014500021F0800203D5C4F30114240102E0C4F397
:10146000013424036F4D2D78954210D95A8872B9F2
:101470006CB19A7A5AB10906D0F8001C48F2800281
:1014800007D548F6BF73194081F0100106E002202D
:1014900070BD4BF68F73194081F480511143C0F831
:1014A000001C5F48006880698047002070BD5B4871
:1014B00010B50068417A41F0200141725848006837
:1014C000C0698047002010BD544A13685A8A10B181
:1014D0000868104470478888801A18820020704776
:1014E0002DE9F047DFF83481534F4FF03009D8F839
:1014F000001001F11005088A0E7A08B9042E04D0F4
:10150000AC88A04216D8042615E04848801E017811
:10151000012903D00726102038802BE0474A0021FC
:101520001268474B120403EBD2325160A7F80090C7
:1015300001701FE00226844200D90446A9682046B3
:1015400088478246002000F0E1FB014622465046D3
:1015500000F012FB2146002000F0EDFB2888001B64
:101560002880688820446880A7F8009035494FF4A7
:1015700040500880D8F800000672BDE8F08770B5CA
:10158000264D2868017844784A0606D001F07F008D
:10159000012828D002282BD035E0092C06D0052CB4
:1015A00007D0032C0ED0012C14D02CE0FFF74DFEF9
:1015B00028E0C1787F292ED8817861BB818851BB12
:1015C000807A27E0C17801291DD18088D8B9FFF73A
:1015D0006EFF17E0C178012915D1818899B9407A49
:1015E00080060AD40FE00B2C0DD1FFF752FE09E064
:1015F000012C02D0032C03D005E0FFF7A9FE01E087
:10160000FFF71AFF48B10849204609684969884729
:10161000032819D008B1082024E017E03C0100207D
:1016200044010020EC000020400100203601002091
:10163000005000409C0000204C010020505C004005
:10164000006000404A01002009200BE0DE4A06202D
:1016500000211268DD4B120403EBD2325160DC4AE8
:10166000302111802968087270BDF8B5D94CDA4D67
:1016700009262068002729684278062A05D0AAB1E1
:10168000082A4ED00A2A52D06EE0027852066BD158
:101690008078012804D0022804D0032804D063E015
:1016A000C96959E0096A57E0496A55E04288BABBFE
:1016B000C288022A58D1027992BB0278530601D11E
:1016C000838833B102F07F02012A05D0022A0DD0AF
:1016D0004AE0AFF205413FE08A6940790021904736
:1016E000F0B92068807A0028F3D13DE0417901F01B
:1016F0000F0001F070020B06B84901EB8001D1F830
:10170000001C03D5C1F30111090102E0C1F301314D
:101710000903B34B1B78834226D90AB90029D8D1D3
:1017200022E0007840061FD1AFF2FF4114E00278BA
:1017300002F07F02012A17D1827AAAB142889AB9AF
:1017400002798AB9C288012A0ED18A6940790021BA
:10175000904748B9AFF2E34131B1206847828161D7
:1017600000208847002006E0296820680969407841
:101770008847032813D021680A8AA2F57F43FF3BDC
:101780000BD002280ED06AB10878000625D5C8888B
:10179000009082420AD9088218E00E72F8BD2068D3
:1017A0000672F8BD4FF008000872F8BD0ED2286826
:1017B0008C4B90F82C00824201D21F7006E0B2FBE5
:1017C000F0F400FB142008B901201870286890F884
:1017D0002C008882BDE8F84082E603200872824926
:1017E00000030880F8BD814810B590F82C10002047
:1017F00000F0ABFA77480068007A082802D0092880
:1018000009D006E078494FF48050088070491020D4
:101810000880002010BD012010BD70B56A48006826
:101820006C4D0004C10B69480144098989B200EB81
:1018300041042868017A09290FD021780170617864
:101840004170A08800F0A9FA29684880208900F03A
:10185000A4FA29688880A089C880286801210172BB
:10186000C08820B1FFF701FFBDE87040BBE7FFF77C
:1018700086FEF9E7F0B55A49584D48F68F770B7850
:10188000002148F2800C0BE0CEB205EB8604D4F8C0
:10189000002C3A40324342EA0C02C4F8002C491CA6
:1018A0009942F1D3484940F08000091F0860F0BD1B
:1018B00010B5484C2068017A022904D0042902D0CE
:1018C000062905D015E0FFF70BFE2068007A11E02D
:1018D0004178052909D10178490606D1C078FFF77A
:1018E000C9FF43480068006A80473B480068806839
:1018F0008047082021680872BDE8104073E710B5E2
:10190000344C2068007A022811D004280FD0032814
:1019100004D0052802D0072805D008E000F00EF812
:101920002068007A04E02C480068C06880470820DE
:1019300021680872BDE8104055E770472DE9F0476F
:10194000244EDFF88C803027356835F8100FA968F1
:10195000A9B100B3AC88844200D904462046884728
:1019600081462888001B28806888204468800020E1
:1019700000F0D6F901462246484600F010F92888C2
:1019800048B119494FF4405008800021084600F042
:10199000D2F9A8F800702888A988884201D30320CA
:1019A00001E018B1052031680872E6E531680620CB
:1019B0000872054900200968044A090402EBD13184
:1019C0004860A8F80070D8E5505C00400060004016
:1019D0004C0100203C01002040010020005000404C
:1019E000EC000020340100204A0100209C0000206F
:1019F0004401002006480549022201600A72064A95
:101A00000449C0E9011208680047000044020020B0
:101A10003C0100209C000020F00000202DE9F84F40
:101A20000020ADF80000DFF834A14BF6BF7648F295
:101A300080074A4D4A4C40F68F7848F60F7BDFF816
:101A400024910AF1440A31E00888474A10F00F0057
:101A5000107034D0454901EB8001D1F8002CADF86D
:101A60000020BDF8002012040BD5D1F8002C02EAAA
:101A70000802C1F8002C3E4901EB800050F8040C2C
:101A80008047BDF80000000610D537483749007878
:101A900001EB8001D1F8002C02EA0B02C1F8002C06
:101AA000344901EB800050F8040C8047DAF800005C
:101AB0004946A9F800000004C6D4BDE8F88F28689C
:101AC0002080208800F030006080208800F44050A2
:101AD00020802868304080F4005080F02000384397
:101AE00028600888C006286815D400EA0B00286022
:101AF000FFF7DEFE26E02188890401D580F400503E
:101B00006188C90626D46188890601D580F0200045
:101B100038432860D1E7ADF80000BDF800000005AB
:101B200006D5286800EA08002860FFF776FE09E07D
:101B3000BDF800000004B9D5286800EA0800286054
:101B4000FFF7DDFE286821883040C904D3D580F432
:101B50008050D0E780F01000D5E70000005C004026
:101B60004A0100203E0000203801002000500040C3
:101B70006400002048000020104B10B5521C520891
:101B800003EB41010AD000BF10F8013B521E10F8D0
:101B9000014B43EA042321F8043BF5D110BD074B68
:101BA000521C520803EB410106D000BF31F8043B40
:101BB00020F8023B521EF9D170470000006000403F
:101BC000784920F007000860704782007648024498
:101BD000D2F8000C48F68F1318400843C2F8000CE6
:101BE0007047820070480244D2F8000C48F6BF7378
:101BF0001840CB0601D580F01000890601D580F091
:101C0000200048F280010843C2F8000C70478200AF
:101C100065480244D2F8000C4BF68F731840CB0491
:101C200001D580F48050890401D580F4005048F239
:101C300080010843C2F8000C704781005A480144F3
:101C4000D1F8000C48F6BF72104080F0300048F226
:101C500080021043C1F8000C7047810052480144D3
:101C6000D1F8000C4BF68F72104080F4405048F2CF
:101C700080021043C1F8000C704781004A480144BB
:101C8000D1F8000C48F68F62104048F280021043F1
:101C9000C1F8000C7047810043480844D0F8001C8C
:101CA000490409D5D0F8001C48F68F7211404CF257
:101CB00080021143C0F8001C704781003A48084474
:101CC000D0F8001C490609D5D0F8001C48F68F72E0
:101CD000114048F2C0021143C0F8001C7047314A5D
:101CE00021F00101126892B202EBC0002F4A42F8C3
:101CF000101070472B4A21F00101126892B202EBDA
:101D0000C0002A4A02EB40008160704725490968FB
:101D100089B201EBC000254931F8100080B270474C
:101D20002049096889B201EBC000204901EB40005D
:101D3000008980B270471B4A126892B202EBC00061
:101D40001A4A02EB400041607047164A126892B28C
:101D500002EBC000154A0C3202EB40023E2909D9C1
:101D60004809C90601D1401E80B24FF4004141EA42
:101D7000802004E04808C90700D0401C80021060A1
:101D800070470849096889B201EBC000074901EBB7
:101D900040008089C0F309007047C1B2000A40EAE0
:101DA00001207047505C004000500040006000403F
:101DB00005490020086005494FF437400880024972
:101DC000091F086000207047445C00404801002063
:101DD0001949084319490860704770B50F23C47842
:101DE00001780122F4B1154C2468457804F4E064CC
:101DF000C4F5E064240AC4F10406E3408478B540E5
:101E00001C402C4301F1E021230181F800340078CB
:101E100000F01F018A404009800000F1E020C0F876
:101E2000002170BD01F01F0082404809800000F1D0
:101E3000E020C0F8802170BD0000FA050CED00E044
:101E400030B51C498379026853B30B6893430B6028
:101E50000A1D13680468A343136002790A441368D7
:101E6000046823431360134A083213680468A343C9
:101E70001360131D1C680568AC431C604479102C6A
:101E800005D021440A68006802430A6030BD116829
:101E9000046821431160196800680143196030BD6E
:101EA0000079084401689143016030BD0149143153
:101EB00008607047000401402E482D4941602E49BA
:101EC000416070472B490420CA68D20701D0012025
:101ED0007047CA68520701D502207047C968C90611
:101EE000FBD50320704700B50346FFF7EBFF02E088
:101EF000FFF7E8FF5B1E012803D0002B00D105206F
:101F000000BD002BF4D1FAE770B505464FF430263A
:101F10003046FFF7E8FF042811D1164C206940F045
:101F2000020020616561206940F040002061304678
:101F3000FFF7D9FF216941F6FD721140216170BDA3
:101F4000F0B506464FF400570D463846FFF7CBFF75
:101F500004280CD1074C206940F001002061358035
:101F60003846FFF7C0FF2169BA1E11402161F0BD5C
:101F70002301674500200240AB89EFCDF0B5CA7858
:101F8000002502F00F03D20601D58A7813430A78A0
:101F90004FF00F0E12F0FF0F4FF001021CD004683B
:101FA0000F8802FA05F63740B74211D14FEA850C87
:101FB0000EFA0CF724EA070703FA0CF43C43CF7837
:101FC000282F02D0482F02D002E0466100E00661CF
:101FD0006D1C082DE4D304600C88FF2C1ED94468C6
:101FE0005FF0000606F1080702FA07F50F882F4098
:101FF000AF420FD14FEA860C0EFA0CF7BC4303FA3E
:102000000CF73C43CF78282F00D14561CF78482F7B
:1020100000D10561761C082EE4D34460F0BD016157
:10202000704741617047000070B50446808886B0F3
:102030000D4620F03F06684600F08AF841480299B4
:10204000B1FBF0F00643A680208820F0010020803C
:1020500028684000B1FBF0F00005000D00D1012020
:1020600040F400418008022800D202202084A1838D
:10207000208840F00100208020884FF6F53108408C
:10208000A9886A89114301432180A88929890843C5
:10209000208106B070BD0029018802D041F0010105
:1020A00001E021F00101018070470029018802D080
:1020B00041F4807101E021F48071018070470029B2
:1020C000018802D041F4007101E021F40071018027
:1020D00070470029018802D041F4806101E021F4B9
:1020E00080610180704701827047008AC0B27047EA
:1020F00012B141F0010101E001F0FE0101827047DF
:1021000002460020938A128B43EA024323F07F4267
:10211000914300D1012070470CB502460020009287
:102120000A0F21F07F41019202D0009A143202E09E
:10213000009A090C1832009212680A4200D001205D
:102140000CBD000040420F002A49C1F8D80070477A
:1021500030B529494A6812F00C03284A03D0042BF1
:1021600001D0082B21D002604A680F23244C03EAD7
:102170001212A35C0268DA4042604B68072505EA48
:102180001323E35C22FA03F383604B6805EAD3234D
:10219000E35CDA40C2604968032303EA9131231FFC
:1021A000595CB2FBF1F1016130BD4A684B6802F441
:1021B00070124FF0020413F4803F04EB924202D0FD
:1021C0004B689B0301D50F4B00E00C4B5A43CAE709
:1021D000094A0029916901D0014300E081439161DE
:1021E0007047054A0029D16901D0014300E08143CD
:1021F000D1617047000042420010024000127A0094
:102200005201002000093D0030B502882B4B2C4CB8
:1022100098420DD0A0420BD0B0F1804F08D0294D8C
:10222000A84205D0284DA84202D0284DA84203D18B
:1022300022F070054A882A43254DA84206D0254D34
:10224000A84203D022F44075CA882A4302808A88B3
:1022500082850A88028598420AD0A04208D01E4A88
:10226000904205D01D4A904202D01D4A904201D1B1
:10227000097A01860121818230BD0029018802D0BE
:1022800041F0010101E021F0010101807047002AC5
:10229000828901D00A4300E08A4382817047024666
:1022A0000020138A92890B4202EA010202D0002A1E
:1022B00000D001207047C94301827047002C0140C3
:1022C000003401400004004000080040000C0040C1
:1022D0000010004000140040004001400044014054
:1022E00000480140704770477047754600F02CF871
:1022F000AE4605006946534620F00700854618B0F3
:1023000020B5FEF781FFBDE820404FF000064FF0FA
:1023100000074FF000084FF0000B21F00701AC461A
:10232000ACE8C009ACE8C009ACE8C009ACE8C00939
:102330008D46704710B50446AFF300802046BDE8D7
:102340001040FDF73ABF00000048704760020020CF
:1023500001491820ABBEFEE72600020070471201BB
:102360000002020000408304405700020102030102
:1023700009024300020100C0320904000001020208
:1023800001000524001001052401000104240202BB
:102390000524060001070582030800FF0904010067
:1023A000020A000000070503024000000705810241
:1023B000400000040309042603530054004D006943
:1023C00000630072006F0065006C006500630074BC
:1023D0000072006F006E00690063007300320353E7
:1023E0000054004D00330032002000560069007296
:1023F000007400750061006C00200043004F004D28
:1024000000200050006F00720074002000200000C7
:1024100030240008000000206401000028010008AA
:10242000C0240008640100205C070000840100084B
:1024300081B201690C141A03531254124D12330263
:102440002132133D080C1C083B19040A1145245184
:102450002AC2721208135E233308121A700832431C
:10246000139D091B08B90413A10A1B08B1041ADB48
:102470000413250B1B086D041A43041A4B041A534A
:10248000044132401AB33832041AB70832261ADD32
:102490000829BA221C33201A1A046729741A894899
:1024A0000916A41A991CD12BA24A535100091A01EA
:1024B000020304060708093C0204063E292A892E65
:04000005080000ED02
:00000001FF
